:020000040800F2
:1000000088050020C5000008CD000008CF000008CA
:1000100000000000000000000000000000000000E0
:10002000000000000000000000000000D1000008F7
:100030000000000000000000D3000008B10C000820
:10004000D700000800000000D7000008D700000813
:10005000D7000008D7000008D7000008D700000824
:1000600000000000D7000008D7000008D7000008F3
:10007000D7000008D7000008D700000800000000E3
:10008000D70000080000000000000000D7000008B2
:1000900000000000D7000008D7000008D7000008C3
:1000A00000000000D700000800000000D700000892
:1000B0000348854600F02AF800480047A10D0008D3
:1000C000880500200448804704480047FEE7FEE713
:1000D000FEE7FEE7FEE7FEE7250D0008B100000899
:1000E00030B50B46014600202022012409E00D46D0
:1000F000D5409D4205D31D469540491B2546954058
:1001000040191546521E002DF1DC30BD064C01256C
:10011000064E05E0E36807CC2B430C3C98471034AF
:10012000B442F7D3FFF7C8FF5C0E00087C0E00084E
:10013000F8B500238DE001249C40A44622407DD0E8
:100140004C68022C01D0122C0CD1DC08A40027181A
:100150003C6A5D07ED0E0F26AE40B4430E69AE401B
:1001600026433E6205685E000324B4400F79A54330
:10017000BF07BF0FB7402F4307604D68012D05D063
:10018000022D03D0112D01D0122D0ED18568CF681C
:10019000A543B7402F43876047686546AF430D7955
:1001A000ED06ED0F9D403D434560C568A5438C6855
:1001B000B4402C43C4604C68E40049D5284CA56980
:1001C00001263543A561A4699D0834400094254C5F
:1001D000AD002F19BC689D072E0F0F25B540AC430D
:1001E0000925ED06A84201D100250FE01E4DA842C9
:1001F00001D101250AE01D4DA84201D1022505E0EB
:100200001B4DA84201D1032500E00525B54025433B
:10021000BD60184C25684E689543F60300D515431C
:10022000256065684E689543B60300D51543656043
:10023000A5684E689543F60202D500E008E0154334
:10024000A560E5684E689543B60200D51543E560A4
:100250005B1C0A681446DC4000D06CE7F8BD000067
:10026000001002400000014000040048000800485F
:10027000000C00480004014001480068704700007D
:10028000B000002070B502462032537D022B27D0EB
:10029000537D122B24D0537D222B21D0537D322B22
:1002A0001ED0537D422B1BD0137D012B18D0012370
:1002B000137502245475046825689D4325600468FD
:1002C00025681E03B5432560046825680D43256035
:1002D000006801681943016053750020107570BDF6
:1002E000022070BD2030407D7047000070B50400D2
:1002F00006D025462035687D0026002802D005E07E
:10030000012070BD2E75204600F042F8022068756D
:10031000206801684908490001600F2160680906EA
:10032000884321680861206882680121C9038A43E3
:100330008260A068002807D0E268012A01D021214C
:100340008902084321688860E068022802D1216898
:1003500080024860206841680C4A1143416061692D
:1003600020690843A169090208432168C860216A1D
:10037000E0690843216808602068026801210A4397
:100380000260A6636975002070BD00000080000255
:1003900000B50068134987B0884220D1032040028D
:1003A000009012200190012002900320039004206D
:1003B000049009206946C006FFF7BAFE0A48C269E0
:1003C000012149050A43C261C06900220840059025
:1003D0000121172000F0A0F8172000F093F807B0D3
:1003E00000BD00000054004000100240F0B503467C
:1003F00020335C7D012C1FD100291BD0002A19D08D
:100400001C7D012C18D001241C7542245C7500242D
:10041000846305686E680127FF03BE436E60416216
:10042000028542851C7500680168FC221143016049
:100430002046F0BD0120F0BD0220F0BDF0B503461E
:1004400020335C7D012C1FD100291BD0002A19D03C
:100450001C7D012C18D001241C7532245C750024ED
:10046000846305686E680127FF03BE436E604162C6
:10047000028542851C7500680168FA2211430160FB
:100480002046F0BD0120F0BD0220F0BD0248016809
:10049000491C016070470000B000002010B50648FC
:1004A0000168102211430160002000F007F800F0FD
:1004B00017F8002010BD00000020024010B50446CF
:1004C00000F060F97D21C900FFF70AFE00F080FB13
:1004D00000222146501E00F01FF8002010BD000031
:1004E00008B5074881690122114381618069104084
:1004F000002200901146501E00F00EF808BD0000CA
:1005000000100240C106C90E012088400149086060
:100510007047000000E100E010B500F0A7FB10BD3F
:10052000F8B5054600682D4CC00342D5216A03206A
:1005300000026A680140024091423AD0E169200419
:100540000143E161E169264E014000913068A11547
:1005500008433060FFF790FE074604E0FFF78CFE8B
:10056000C01B64281BD83068C005F7D5206A032754
:100570003F02226AB843012109040A432262226A27
:100580008A432262206280070ED5FFF775FE064679
:1005900007E0FFF771FE811B1248814201D9032059
:1005A000F8BD206A8007F4D5206A6968B84308431B
:1005B00020622878C00705D0206BA96880088000D9
:1005C000084320632878800605D5206B10218843D6
:1005D000E968084320630020F8BD000000100240D5
:1005E0000070004088130000F8B5054662480E46CA
:1005F0000068F021C007C00F604CB04254D25E4882
:10060000026852085200324302600068C007C00FFF
:10061000B0426ED12878800704D560688843A96805
:10062000084360602878C00728D06868012814D083
:100630002168022814D0890700295ADA61688908DC
:10064000890001436160FFF717FE064668680128CC
:100650000ED04B4F022817D021E021688903EBE729
:100660008901E9E7FFF708FE801BB84201D961E084
:10067000434F60680007800F0128F3D16DE0FFF75A
:10068000FBFD801BB84255D860680007800F022828
:10069000F5D162E0FFF7F0FD801BB8424AD86068F0
:1006A0000007800FF6D158E02878800704D56068ED
:1006B0008843A968084360602878C00740D068680C
:1006C000012813D02168022814D08907002942DAB2
:1006D00061688908890001436160FFF7CDFD074625
:1006E000686801280ED0022818D025E02168890307
:1006F000ECE730E08901E9E7FFF7BEFDC11B2048C8
:10070000814217D860680007800F0128F4D117E0F4
:10071000FFF7B2FDC11B1A4881420BD86068000781
:10072000800F0228F4D10BE0FFF7A6FDC11B14488F
:10073000814201D90320F8BD60680007800FF3D122
:100740000D48016849084900314301600068C0074D
:10075000C00FB04201D00120F8BD2878400706D56F
:100760006068072109028843E96808436060002047
:10077000FFF7A4FE0020F8BD002002400010024058
:100780008813000010B500F011F805494968054AC2
:100790000906090F515CC8400349086010BD0000FC
:1007A000001002404C0E00080000002010B513A3FA
:1007B0000FCB88B06C460FC414A30FCB0FC41749DE
:1007C0004A680C20134603401548042B02D0082B1E
:1007D00002D0144808B010BD93021B0F6C46E45CB5
:1007E000C96A04AB0907090F595CD20303D5FFF7A7
:1007F00077FC6043EEE70C486043EBE70203040537
:10080000060708090A0B0C0D0E0F10100102030455
:1008100005060708090A0B0C0D0E0F100010024008
:1008200000366E0100127A0000093D00F8B504465A
:100830000078DD4DC0075CD068680007800F012894
:1008400007D068680007800F022809D16868C003D4
:1008500006D5286880034CD5606800287BD048E026
:10086000286801263604B04328602868B700B843DA
:100870002860FFF701FD009005E0FFF7FDFC0099FF
:10088000401A642868D828688003F6D46068012874
:100890000AD0002801D0052808D029682846B1438D
:1008A00029602968B94307E0284603E029682846FB
:1008B00039432960016831430160606800280CD029
:1008C000FFF7DAFC064604E0FFF7D6FC801B64283D
:1008D000D8D828688003F7D50BE0FFF7CDFC064693
:1008E00004E0FFF7C9FC801B6428CBD8286880038C
:1008F000F7D420780127800700283DDA68680007D0
:10090000800F07D068680007800F022809D1686847
:10091000C00306D42868800715D5E06801281AD1DD
:1009200011E0E0680028286817D038432860FFF7F6
:10093000A3FC064604E0FFF79FFC801B6428A1D8B7
:1009400028688007F7D52868F82188432169C900FD
:100950000843286010E025E1CCE040084000286012
:10096000FFF78AFC064604E0FFF786FC801B64283C
:1009700088D828688007F7D42078000721D5206A16
:100980000028686A0ED038436862FFF775FC064697
:1009900004E0FFF771FC801B642899D8686A80071F
:1009A000F7D50EE0400840006862FFF765FC064698
:1009B00004E0FFF761FC801B642889D8686A80071F
:1009C000F7D4207804264007002866DAE969B006E3
:1009D0000143E961E96901407448009101688215A9
:1009E00011430160FFF748FC009005E0FFF744FC6D
:1009F0000099401A64287DD86C480068C005F5D578
:100A0000286A400840002862286AB0432862FFF73D
:100A100033FC009006E0FFF72FFC0099411A644870
:100A2000814267D8286A8007F5D4A06801280BD0D6
:100A3000002801D0052809D0296A2846490849001C
:100A40002962296AB14307E0284603E0296A28465B
:100A500031432962016A39430162A06800280ED03F
:100A6000FFF70AFC009006E0FFF706FC0099411A28
:100A70004F4881423ED8286A8007F5D50DE0FFF740
:100A8000FBFB009006E0FFF7F7FB0099411A48488E
:100A900081422FD8286A8007F5D42078C00635D542
:100AA000606901280CD0401D686B24D03043686316
:100AB000686B400840006863FFF7DEFB064622E0F3
:100AC000686B30436863686B38436863FFF7D4FB37
:100AD000064604E0FFF7D0FB801B64285BD8686BF8
:100AE0008007F7D5686BF8218843A169C9000843DE
:100AF00068630BE04FE0B0436863F3E7FFF7BCFBCC
:100B0000801B642847D8686B8007F7D4606A002888
:100B100046D069680907890F022943D001263606A5
:100B20000228286805D0B0432860FFF7A5FB0446DB
:100B300033E0B0432860FFF79FFB074604E0FFF770
:100B40009BFBC01B642826D828688001F7D4E86A7C
:100B5000216B000900010843E862A16AE06A0843CA
:100B600069683D2212049143084368602868304355
:100B70002860FFF781FB044604E0FFF77DFB001BC4
:100B8000642808D828688001F7D509E0FFF774FBCE
:100B9000001B642801D90320F8BD28688001F5D422
:100BA0000020F8BD0120F8BD001002400070004098
:100BB00088130000042204490428086902D09043E5
:100BC000086170471043FBE700E000E07047000059
:100BD000094910B5401E884201D9012010BD074CBB
:100BE00060610321081F00F041F80020A061072088
:100BF0002061002010BD0000FFFFFF0000E000E0CA
:100C000010B5FFF7E3FF10BD08B5084842690121A0
:100C100089050A43426142690A40009242694911CA
:100C20000A43426140690840009008BD001002403C
:100C300010B50C480A4901600B4941603E218160B2
:100C40000121C160002101618161FF22C161426116
:100C50000162FFF74BFB00210248FFF713FB10BDB9
:100C600000540040480100200E0900208307FF22A5
:100C7000DB0E9A408907090E994000280BDA00071D
:100C8000000F0838830808489B001818C36993436D
:100C90000B43C3617047830804489B001B18186806
:100CA000904308431860704700ED00E000E400E066
:100CB00010B5FFF7EBFBFFF7A3FF10BD70B596B0C3
:100CC00003200090022610200996012504900003BD
:100CD000002401950A9003950B940C946846FFF745
:100CE000A5FD0F9401210DA80E960D951094FFF708
:100CF0007BFC20201190149411A8FFF711FCFFF742
:100D000041FD7D21C900FFF7EBF9FFF761FF0420EA
:100D1000FFF750FF00221146501EFFF7FDFB16B0F3
:100D200070BD000013480168012211430160416851
:100D3000114A114041600168104A11400160016888
:100D4000012292049143016041683F2212049143C1
:100D50004160C16A09090901C162016BFF221432B5
:100D600091430163416B490849004163002181605F
:100D700070470000001002400CB8FF08FFFFF6FEAD
:100D800002E008C8121F08C1002AFAD17047704754
:100D9000002001E001C1121F002AFBD170470000B2
:100DA000FFF77CFBFFF78AFFFFF72EFFFFF740FFFF
:100DB000234C00256580A580012221492148FFF7A9
:100DC00015FB0028F8D11F48FFF78CFA0128FAD14B
:100DD000207834281AD01A490222891C1948FFF7B2
:100DE00005FB0028F7D11748FFF77CFA0128FAD154
:100DF00013499322891D1348FFF720FB0028F7D1E0
:100E00001048FFF76FFA0128FAD1D3E70C49022204
:100E1000091D0C48FFF7EAFA0028F7D10948FFF747
:100E200061FA0128FAD1A28807490648FFF7DEFADD
:100E30000028F8D10348FFF755FA0128FAD1B9E79D
:100E40001400002048010020B40000200000000031
:100E50000102030401020304060708097C0E0008CE
:100E600000000020B4000000800D0008300F0008D2
:100E7000B4000020D4040000900D000800127A0095
:100E8000000000000000000001020304060708093A
:100E9000000000000000202A2A2A2A4932435F5419
:100EA000776F426F6172647320636F6D6D756E69E9
:100EB000636174696F6E206261736564206F6E2078
:100EC00049542A2A2A2A20202A2A2A2A4932435FD8
:100ED00054776F426F6172647320636F6D6D756ECE
:100EE00069636174696F6E206261736564206F6EFF
:100EF0002049542A2A2A2A20202A2A2A2A493243E7
:100F00005F54776F426F6172647320636F6D6D75AC
:100F10006E69636174696F6E206261736564206FCE
:100F20006E2049542A2A2A2A2000000000000000CE
:04000005080000B13E
:00000001FF
